:020000040800F2
:1000000000000220710C0008D9090008DF0900086F
:10001000E5090008EB090008F109000800000000EC
:10002000000000000000000000000000F7090008C8
:10003000050A000800000000130A0008210A000851
:10004000C10C0008C10C0008C10C0008C10C00085C
:10005000C10C0008C10C0008C10C0008C10C00084C
:10006000C10C0008C10C0008C10C0008C10C00083C
:10007000C10C0008C10C0008C10C0008C10C00082C
:10008000C10C0008C10C0008C10C0008C10C00081C
:10009000C10C0008C10C0008C10C0008C10C00080C
:1000A000C10C0008C10C0008C10C0008C10C0008FC
:1000B000C10C0008C10C0008C10C0008C10C0008EC
:1000C000C10C0008C10C0008C10C0008C10C0008DC
:1000D000C10C00082D0A0008C10C0008C10C000862
:1000E000C10C0008C10C0008C10C0008C10C0008BC
:1000F000C10C0008C10C0008C10C0008C10C0008AC
:10010000C10C0008C10C0008C10C0008C10C00089B
:10011000C10C0008C10C0008C10C0008C10C00088B
:10012000C10C0008C10C0008C10C0008C10C00087B
:10013000C10C0008C10C0008C10C0008C10C00086B
:10014000C10C0008C10C0008C10C0008C10C00085B
:10015000C10C0008C10C0008C10C0008C10C00084B
:10016000C10C0008C10C0008C10C0008C10C00083B
:10017000C10C0008C10C0008C10C00080000000000
:08018000C10C0008C10C0008CD
:1001900010B5054C237833B9044B13B10448AFF3C1
:1001A00000800123237010BD7000002000000000BB
:1001B0005447000808B5034B1BB103490348AFF38C
:1001C000008008BD000000007400002054470008B3
:1001D00001F0FF01102A2BDB10F0070F08D010F8F8
:1001E000013B013A8B422DD010F0070F42B3F6D1FC
:1001F000F0B441EA012141EA014122F007047FF015
:1002000000070023F0E80256083C85EA010586EA6B
:10021000010685FA47F5A3FA87F586FA47F6A5FAA7
:1002200087F68EB9EED1F0BC01F0FF0102F00702B3
:1002300032B110F8013B013A83EA010313B1F8D15E
:100240000020704701387047002D06BF354603383F
:10025000073815F0010F07D1013015F4807F02BF78
:10026000013015F4C03F0130F0BC0138704700BFC9
:1002700053B94AB9002908BF00281CBF4FF0FF310D
:100280004FF0FF3000F06EB9ADF1080C6DE904CE0F
:1002900000F006F8DDF804E0DDE9022304B0704761
:1002A0002DE9F047089D04468C46002B40F08380E2
:1002B0008A42174647D9B2FA82F242B1C2F120000F
:1002C00024FA00F09140974040EA010C94404FEA34
:1002D0001748230CBCFBF8F61FFA87FE08FB16C173
:1002E00043EA014306FB0EF1994209D9FB1806F1D6
:1002F000FF3080F01981994240F21681023E3B4462
:100300005B1AA4B2B3FBF8F008FB103344EA0344D1
:1003100000FB0EFEA64509D93C1900F1FF3380F021
:100320000581A64540F2028102383C4440EA06407D
:10033000A4EB0E0400261DB1D4400023C5E9004300
:100340003146BDE8F08702B9FFDEB2FA82F2002A38
:1003500050D1CB1B4FEA174E1FFA87F80126B3FB8B
:10036000FEFC210C0EFB1C3341EA034108FB0CF39D
:100370008B4207D979180CF1FF3002D28B4200F280
:10038000E9808446C91AA3B2B1FBFEF00EFB10113E
:1003900043EA014408FB00F8A04507D93C1900F1E5
:1003A000FF3302D2A04500F2D9801846A4EB08041E
:1003B00040EA0C40BFE78B4209D9002D00F0B18024
:1003C0000026C5E9000130463146BDE8F087B3FAA2
:1003D00083F6002E4AD18B4202D3824200F2B880CB
:1003E000841A61EB030101208C46002DA8D0C5E9D9
:1003F000004CA5E7C2F1200320FA03F6974001FA6A
:1004000002F04FEA174ED9403043030CB1FBFEF621
:100410001FFA87F80EFB161143EA014306FB08F1A9
:10042000994204FA02F409D9FB1806F1FF3C80F066
:100430008D80994240F28A80023E3B445B1A81B231
:10044000B3FBFEF00EFB103341EA034100FB08F35F
:100450008B4207D9791800F1FF3C73D28B4271D9D6
:1004600002383944CB1A40EA064678E7C6F1200C38
:1004700003FA06F422FA0CF31C4320FA0CF701FAF3
:1004800006F34FEA144E21FA0CF11F433B0CB1FB6B
:10049000FEF91FFA84F80EFB191143EA014109FB2A
:1004A00008FA8A4502FA06F200FA06F308D961183A
:1004B00009F1FF3048D28A4546D9A9F10209214401
:1004C000A1EB0A01BFB2B1FBFEF00EFB101147EA2F
:1004D000014700FB08F8B84507D9E71900F1FF31DB
:1004E0002ED2B8452CD90238274440EA0940A7EB60
:1004F0000807A0FB02894F45C64649461AD317D0C4
:100500005DB1B3EB0E0267EB010707FA0CFCF2409A
:100510004CEA0202F740C5E9002700263146BDE853
:10052000F0872E4628460BE70646E9E61846FDE624
:100530004345E5D2B8EB020E69EB04010138DFE771
:100540000846D2E760468DE78146B9E7664675E71B
:1005500030464AE7ACF1020C394413E702383C4418
:1005600024E700BF704700BF80B58AB000AF07F135
:10057000140300221A605A609A60DA601A6100233C
:100580003B61444B1B6B434A43F010031363414BE5
:100590001B6B03F010033B613B690023FB603D4B89
:1005A0001B6B3C4A43F0040313633A4B1B6B03F091
:1005B0000403FB60FB680023BB60364B1B6B354AB2
:1005C00043F020031363334B1B6B03F02003BB602A
:1005D000BB6800237B602F4B1B6B2E4A43F08003CC
:1005E00013632C4B1B6B03F080037B607B68002341
:1005F0003B60284B1B6B274A43F001031363254BD9
:100600001B6B03F001033B603B6801224FF4C061A8
:10061000214800F045FF01220421204800F040FF5E
:1006200010237B610023BB610223FB6107F11403EC
:1006300019461B4800F080FD4FF4C0637B61012325
:10064000BB610023FB6100233B6207F114031946E1
:10065000114800F071FD01237B610023BB61002381
:10066000FB6107F1140319460C4800F065FD0423F3
:100670007B610123BB610023FB6102233B6207F125
:1006800014031946054800F057FD00BF2837BD4642
:1006900080BD00BF0038024000140240000002404C
:1006A0000010024080B582B000AF0023BB8000F094
:1006B00009FB00F033F8FFF757FF00F05FFA00F096
:1006C00007FA134800F09AF801221249104801F085
:1006D000F2FE4FF4FA7000F067FB02F0E4FE4FF414
:1006E0007A7000F061FB3B1D184602F0E5FE3B1DF1
:1006F000184602F0E1FE3B7919467B791A46064816
:1007000002F0A6FF40F2DC5000F04EFBEFE700BF26
:10071000E8000020300100206C47000880B594B04C
:1007200000AF07F1200330220021184602F088FFB5
:1007300007F10C0300221A605A609A60DA601A61AD
:100740000023BB60284B1B6C274A43F08053136483
:10075000254B1B6C03F08053BB60BB6800237B60A0
:10076000224B1B68214A43F4804313601F4B1B68D4
:1007700003F480437B607B6801233B624FF480334A
:100780007B620223BB634FF48003FB6304233B645F
:10079000A8237B640223BB640423FB6407F12003CA
:1007A000184600F097FE0346002B01D000F020F819
:1007B0000F23FB6002233B6100237B614FF4A053B6
:1007C000BB614FF48053FB6107F10C030521184610
:1007D00001F0F8F80346002B01D000F009F800BF43
:1007E0005037BD4680BD00BF003802400070004059
:1007F00080B400AF72B600BFFEE7000080B582B0E3
:1008000000AF7860074A7B681360074B1B689868E5
:1008100000230222002102F049FF00BF0837BD4635
:1008200080BD00BF9C0000200C00002080B582B07D
:1008300000AF78607B68002B04DB7B68022B01DC57
:10084000012305E002F0D2FE034609221A600023CC
:1008500018460837BD4680BD80B586B000AFF86049
:10086000B9607A60FB68012B02D0FB68022B11D1C2
:100870000E4B18687B689AB24FF0FF33B96801F0ED
:10088000E6FC0346FB75FB7D002B01D17B6808E08D
:10089000052306E002F0AAFE034609221A604FF083
:1008A000FF3318461837BD4680BD00BF9C000020AE
:1008B00080B582B000AF78607B68002B04DB7B687A
:1008C000022B01DC002306E002F090FE0346092221
:1008D0001A604FF0FF3318460837BD4680BD80B51B
:1008E00084B000AFF860B9607A6002F07FFE034622
:1008F00009221A604FF0FF3318461037BD4680BDFD
:1009000080B586B000AFF860B9607A60FB68002BF4
:1009100010D10E4B18684FF0FF330122B96801F077
:1009200028FD0346FB75FB7D002B01D1012308E068
:10093000052306E002F05AFE034609221A604FF032
:10094000FF3318461837BD4680BD00BF9C0000200D
:1009500080B582B000AF786039607B68002B08DB1F
:100960007B68022B05DC3B684FF400525A60002381
:1009700005E002F03BFE034609221A6000231846F8
:100980000837BD4680BD000080B483B000AF0023AF
:100990007B60104B5B6C0F4A43F4804353640D4BF8
:1009A0005B6C03F480437B607B6800233B60094BF6
:1009B0001B6C084A43F080531364064B1B6C03F016
:1009C00080533B603B6800BF0C37BD465DF8047B3D
:1009D000704700BF0038024080B400AFFEE780B42B
:1009E00000AFFEE780B400AFFEE780B400AFFEE7E3
:1009F00080B400AFFEE780B400AF00BFBD465DF835
:100A0000047B704780B400AF00BFBD465DF8047B37
:100A1000704780B400AF00BFBD465DF8047B7047EF
:100A200080B500AF00F0A0F900BF80BD80B500AF79
:100A3000024801F071FD00BF80BD00BFE80000204A
:100A400080B586B000AF7860144A154BD31A7B612D
:100A50007B693B61134B1B68002B02D1114B124A7F
:100A60001A60104B1A687B6813443A699A4207D29D
:100A700002F0BCFD03460C221A604FF0FF3309E080
:100A8000084B1B68FB60074B1A687B681344054AD8
:100A90001360FB6818461837BD4680BD0000022071
:100AA000000400008C0000204801002080B400AF4A
:100AB000064BD3F88830054A43F47003C2F88830F7
:100AC00000BFBD465DF8047B704700BF00ED00E04D
:100AD00080B582B000AF3B4600221A605A60144BCA
:100AE000144A1A60124B53225A60114B00229A602A
:100AF0000F4B0122DA600E4B00229A610C4801F084
:100B00005DF90346002B01D0FFF772FE00233B6026
:100B100000237B603B461946054801F0CFFA0346A7
:100B2000002B01D0FFF764FE00BF0837BD4680BD33
:100B3000A00000200010004080B485B000AF7860B5
:100B40007B681B680B4A93420DD10023FB600A4B64
:100B50001B6C094A43F010031364074B1B6C03F032
:100B60001003FB60FB6800BF1437BD465DF8047BD3
:100B7000704700BF001000400038024080B500AF51
:100B8000114B124A1A60104B4FF4E1325A600E4B6F
:100B900000229A600C4B0022DA600B4B00221A6193
:100BA000094B0C225A61084B00229A61064B002225
:100BB000DA61054801F0FEFA0346002B01D0FFF789
:100BC00017FE00BF80BD00BFE800002000100140FC
:100BD00080B58AB000AF786007F1140300221A6074
:100BE0005A609A60DA601A617B681B681D4A9342FA
:100BF00034D100233B611C4B5B6C1B4A43F0100358
:100C00005364194B5B6C03F010033B613B69002399
:100C1000FB60154B1B6B144A43F001031363124B2B
:100C20001B6B03F00103FB60FB684FF4C0637B6147
:100C30000223BB610023FB6103233B6207237B622A
:100C400007F114031946094800F076FA0022002142
:100C5000252000F0A8F9252000F0C1F900BF2837B1
:100C6000BD4680BD00100140003802400000024037
:100C7000DFF834D00D480E490E4A002302E0D45864
:100C8000C4500433C4188C42F9D30B4A0B4C0023D4
:100C900001E013600432A242FBD3FFF707FF02F02A
:100CA000ABFCFFF7FFFC70470000022000000020B3
:100CB000700000204448000870000020440100201B
:100CC000FEE7000080B500AF0E4B1B680D4A43F4F1
:100CD000007313600B4B1B680A4A43F48063136074
:100CE000084B1B68074A43F480731360032000F02D
:100CF0004FF90F2000F008F8FFF746FE00231846D2
:100D000080BD00BF003C024080B582B000AF78607B
:100D1000124B1A68124B1B7819464FF47A73B3FBC7
:100D2000F1F3B2FBF3F3184600F067F90346002B2A
:100D300001D001230EE07B680F2B0AD800227968CE
:100D40004FF0FF3000F02FF9064A7B681360002354
:100D500000E0012318460837BD4680BD0000002092
:100D6000080000200400002080B400AF064B1B7870
:100D70001A46064B1B681344044A136000BFBD4665
:100D80005DF8047B704700BF080000202C010020A4
:100D900080B400AF034B1B681846BD465DF8047B6A
:100DA000704700BF2C01002080B584B000AF786090
:100DB000FFF7EEFFB8607B68FB60FB68B3F1FF3FB5
:100DC00005D00A4B1B781A46FB681344FB6000BF32
:100DD000FFF7DEFF0246BB68D31AFA689A42F7D8DB
:100DE00000BF00BF1037BD4680BD00BF0800002017
:100DF00080B485B000AF78607B6803F00703FB60C8
:100E00000C4BDB68BB60BA684FF6FF031340BB6056
:100E1000FB681A02BB68134343F0BF6343F400331B
:100E2000BB60044ABB68D36000BF1437BD465DF8A1
:100E3000047B704700ED00E080B400AF044BDB683A
:100E40001B0A03F007031846BD465DF8047B704794
:100E500000ED00E080B483B000AF0346FB7197F96A
:100E60000730002B0BDBFB7903F01F02074997F9D2
:100E700007305B09012000FA02F241F8232000BF8D
:100E80000C37BD465DF8047B704700BF00E100E011
:100E900080B483B000AF03463960FB7197F9073027
:100EA000002B0ADB3B68DAB20C4997F907301201D4
:100EB000D2B20B4483F800230AE03B68DAB2084957
:100EC000FB7903F00F03043B1201D2B20B441A76F4
:100ED00000BF0C37BD465DF8047B704700E100E0C1
:100EE00000ED00E080B489B000AFF860B9607A60CE
:100EF000FB6803F00703FB61FB69C3F10703042BE5
:100F000028BF0423BB61FB690433062B02D9FB69AC
:100F1000033B00E000237B614FF0FF32BB6902FA24
:100F200003F3DA43BB681A407B699A404FF0FF3104
:100F30007B6901FA03F3D9437B680B4013431846DE
:100F40002437BD465DF8047B7047000080B582B051
:100F500000AF78607B68013BB3F1807F01D3012350
:100F60000FE00A4A7B68013B53600F214FF0FF30CE
:100F7000FFF78EFF054B00229A60044B07221A6090
:100F8000002318460837BD4680BD00BF10E000E0D2
:100F900080B582B000AF78607868FFF729FF00BFA6
:100FA0000837BD4680BD80B586B000AF0346B96046
:100FB0007A60FB7300237B61FFF73EFF78617A68FC
:100FC000B9687869FFF78EFF024697F90F3011462E
:100FD0001846FFF75DFF00BF1837BD4680BD80B5DE
:100FE00082B000AF0346FB7197F907301846FFF750
:100FF00031FF00BF0837BD4680BD80B582B000AF6D
:1010000078607868FFF7A2FF034618460837BD46A8
:1010100080BD80B584B000AF78607B689B6DFB605D
:10102000FFF7B6FEB8607B6893F83530DBB2022B71
:1010300008D07B6880225A657B68002283F83420C0
:10104000012352E07B681B681A687B681B6822F0EA
:1010500016021A607B681B685A697B681B6822F05D
:1010600080025A617B681B6C002B03D17B689B6CF0
:10107000002B07D07B681B681A687B681B6822F00E
:1010800008021A607B681B681A687B681B6822F07C
:1010900001021A6013E0FFF77BFE0246BB68D31A19
:1010A000052B0CD97B6820225A657B68032283F8C4
:1010B00035207B68002283F83420032315E07B6809
:1010C0001B681B6803F00103002BE4D17B68DB6D18
:1010D0003F229A40FB689A607B68012283F83520A2
:1010E0007B68002283F83420002318461037BD4661
:1010F00080BD80B483B000AF78607B6893F83530F2
:10110000DBB2022B04D07B6880225A6501230CE0FD
:101110007B68052283F835207B681B681A687B682A
:101120001B6822F001021A60002318460C37BD46E6
:101130005DF8047B7047000080B489B000AF786030
:10114000396000237B6100233B610023BB610023E6
:10115000FB616BE10122FB6902FA03F37B613B68EF
:101160001B687A6913403B613A697B699A4240F097
:101170005A813B685B6803F00303012B05D03B6891
:101180005B6803F00303022B30D17B689B68BB6173
:10119000FB695B00032202FA03F3DB43BA691340E5
:1011A000BB613B68DA68FB695B0002FA03F3BA696A
:1011B0001343BB617B68BA699A607B685B68BB61FB
:1011C0000122FB6902FA03F3DB43BA691340BB61F6
:1011D0003B685B681B0903F00102FB6902FA03F339
:1011E000BA691343BB617B68BA695A603B685B6844
:1011F00003F00303032B17D07B68DB68BB61FB693B
:101200005B00032202FA03F3DB43BA691340BB61BC
:101210003B689A68FB695B0002FA03F3BA691343FF
:10122000BB617B68BA69DA603B685B6803F0030303
:10123000022B23D1FB69DA087B68083253F822308D
:10124000BB61FB6903F007039B000F2202FA03F363
:10125000DB43BA691340BB613B681A69FB6903F061
:1012600007039B0002FA03F3BA691343BB61FB69EE
:10127000DA087B680832B96943F822107B681B687A
:10128000BB61FB695B00032202FA03F3DB43BA692B
:101290001340BB613B685B6803F00302FB695B00C2
:1012A00002FA03F3BA691343BB617B68BA691A6037
:1012B0003B685B6803F44033002B00F0B4800023EC
:1012C000FB60604B5B6C5F4A43F4804353645D4B4F
:1012D0005B6C03F48043FB60FB685B4AFB699B0823
:1012E000023352F82330BB61FB6903F003039B0018
:1012F0000F2202FA03F3DB43BA691340BB617B6838
:10130000524A93422BD07B68514A934225D07B6846
:10131000504A93421FD07B684F4A934219D07B6852
:101320004E4A934213D07B684D4A93420DD07B685E
:101330004C4A934207D07B684B4A934201D1072322
:101340000EE008230CE006230AE0052308E004234E
:1013500006E0032304E0022302E0012300E000236F
:10136000FA6902F0030292009340BA691343BB6129
:101370003549FB699B080233BA6941F823203B4B8E
:101380001B68BB613B69DB43BA691340BB613B68C7
:101390005B6803F48033002B03D0BA693B691343C5
:1013A000BB61324ABB691360304B5B68BB613B6910
:1013B000DB43BA691340BB613B685B6803F40033ED
:1013C000002B03D0BA693B691343BB61274ABB6951
:1013D0005360264B9B68BB613B69DB43BA69134092
:1013E000BB613B685B6803F48013002B03D0BA69D0
:1013F0003B691343BB611D4ABB6993601B4BDB68B0
:10140000BB613B69DB43BA691340BB613B685B6806
:1014100003F40013002B03D0BA693B691343BB618B
:10142000124ABB69D360FB690133FB61FB690F2B77
:101430007FF690AE00BF00BF2437BD465DF8047B49
:10144000704700BF003802400038014000000240F1
:101450000004024000080240000C0240001002405C
:101460000014024000180240001C0240003C0140F1
:1014700080B485B000AF78600B467B807B681A69CA
:101480007B881340002B02D00123FB7301E0002373
:10149000FB73FB7B18461437BD465DF8047B704731
:1014A00080B483B000AF78600B467B8013467B70BE
:1014B0007B78002B03D07A887B689A6103E07B8875
:1014C0001A047B689A6100BF0C37BD465DF8047B47
:1014D0007047000080B586B000AF78607B68002B55
:1014E00001D1012364E27B681B6803F00103002B38
:1014F00075D0A34B9B6803F00C03042B0CD0A04BBE
:101500009B6803F00C03082B12D19D4B5B6803F41E
:101510008003B3F5800F0BD1994B1B6803F40033A4
:10152000002B5BD07B685B68002B57D101233FE227
:101530007B685B68B3F5803F06D1914B1B68904A8E
:1015400043F4803313601DE07B685B68B3F5A02F24
:101550000CD18B4B1B688A4A43F480231360884B61
:101560001B68874A43F4803313600BE0844B1B688D
:10157000834A23F480331360814B1B68804A23F431
:10158000802313607B685B68002B13D0FFF700FC9F
:10159000386108E0FFF7FCFB02463B69D31A642B75
:1015A00001D9032304E2764B1B6803F40033002BBC
:1015B000F0D014E0FFF7ECFB386108E0FFF7E8FB40
:1015C00002463B69D31A642B01D90323F0E16C4B2B
:1015D0001B6803F40033002BF0D100E000BF7B68F0
:1015E0001B6803F00203002B63D0654B9B6803F07C
:1015F0000C03002B0BD0624B9B6803F00C03082BF1
:101600001CD15F4B5B6803F48003002B16D15C4B4D
:101610001B6803F00203002B05D07B68DB68012BFD
:1016200001D00123C4E1564B1B6823F0F8027B680C
:101630001B69DB00524913430B603AE07B68DB68AF
:10164000002B20D04F4B01221A60FFF7A1FB38611D
:1016500008E0FFF79DFB02463B69D31A022B01D934
:101660000323A5E1464B1B6803F00203002BF0D0D7
:10167000434B1B6823F0F8027B681B69DB00404981
:1016800013430B6015E03F4B00221A60FFF780FB0D
:10169000386108E0FFF77CFB02463B69D31A022B56
:1016A00001D9032384E1364B1B6803F00203002BAE
:1016B000F0D17B681B6803F00803002B30D07B68F7
:1016C0005B69002B16D0304B01221A60FFF760FBDC
:1016D000386108E0FFF75CFB02463B69D31A022B36
:1016E00001D9032364E1264B5B6F03F00203002B57
:1016F000F0D015E0244B00221A60FFF749FB386157
:1017000008E0FFF745FB02463B69D31A022B01D9DB
:1017100003234DE11A4B5B6F03F00203002BF0D162
:101720007B681B6803F00403002B00F0A0800023FB
:10173000FB75134B1B6C03F08053002B0FD1002360
:10174000BB600F4B1B6C0E4A43F0805313640C4B71
:101750001B6C03F08053BB60BB680123FB750B4B14
:101760001B6803F48073002B21D1084B1B68074AC8
:1017700043F480731360FFF70BFB386111E000BF87
:101780000038024000004742800E4742007000408F
:10179000FFF7FEFA02463B69D31A022B01D9032355
:1017A00006E1854B1B6803F48073002BF0D07B6847
:1017B0009B68012B06D1814B1B6F804A43F00103CC
:1017C00013671CE07B689B68052B0CD17B4B1B6F60
:1017D0007A4A43F004031367784B1B6F774A43F050
:1017E000010313670BE0754B1B6F744A23F0010371
:1017F0001367724B1B6F714A23F0040313677B68F6
:101800009B68002B15D0FFF7C3FA38610AE0FFF799
:10181000BFFA02463B69D31A41F28832934201D99A
:101820000323C5E0654B1B6F03F00203002BEED0D2
:1018300014E0FFF7ADFA38610AE0FFF7A9FA0246B3
:101840003B69D31A41F28832934201D90323AFE0B6
:101850005A4B1B6F03F00203002BEED1FB7D012BD3
:1018600005D1564B1B6C554A23F0805313647B689B
:101870009B69002B00F09B80504B9B6803F00C038E
:10188000082B5CD07B689B69022B41D14C4B00221A
:101890001A60FFF77DFA386108E0FFF779FA02462F
:1018A0003B69D31A022B01D9032381E0434B1B6808
:1018B00003F00073002BF0D17B68DA697B681B6A48
:1018C0001A437B685B6A9B011A437B689B6A5B08CF
:1018D000013B1B041A437B68DB6A1B063749134331
:1018E0004B60374B01221A60FFF752FA386108E06B
:1018F000FFF74EFA02463B69D31A022B01D90323A4
:1019000056E02E4B1B6803F00073002BF0D04EE026
:101910002B4B00221A60FFF73BFA386108E0FFF713
:1019200037FA02463B69D31A022B01D903233FE061
:10193000224B1B6803F00073002BF0D137E07B686B
:101940009B69012B01D1012332E01C4B5B68FB60DA
:101950007B689B69012B28D0FB6803F480027B68BD
:10196000DB699A4221D1FB6803F03F027B681B6A66
:101970009A421AD1FA6847F6C07313407A68526ADD
:101980009201934211D1FB6803F440327B689B6A59
:101990005B08013B1B049A4207D1FB6803F07062AD
:1019A0007B68DB6A1B069A4201D0012300E000231A
:1019B00018461837BD4680BD007000400038024010
:1019C0006000474280B584B000AF786039607B68C2
:1019D000002B01D10123CCE0684B1B6803F0070307
:1019E0003A689A420CD9654B3A68D2B21A70634B86
:1019F0001B6803F007033A689A4201D00123B8E05C
:101A00007B681B6803F00203002B20D07B681B68F7
:101A100003F00403002B05D0594B9B68584A43F44C
:101A2000E05393607B681B6803F00803002B05D02C
:101A3000534B9B68524A43F460439360504B9B68FE
:101A400023F0F0027B689B684D4913438B607B68F1
:101A50001B6803F00103002B44D07B685B68012BFB
:101A600007D1474B1B6803F40033002B19D1012326
:101A70007FE07B685B68022B03D07B685B68032B8D
:101A800007D13F4B1B6803F00073002B09D10123E2
:101A90006FE03B4B1B6803F00203002B01D10123D5
:101AA00067E0374B9B6823F003027B685B6834492F
:101AB00013438B60FFF76CF9F8600AE0FFF768F9F1
:101AC0000246FB68D31A41F28832934201D90323BC
:101AD0004FE02B4B9B6803F00C027B685B689B001C
:101AE0009A42EBD1254B1B6803F007033A689A42F0
:101AF0000CD2224B3A68D2B21A70204B1B6803F00A
:101B000007033A689A4201D0012332E07B681B68E0
:101B100003F00403002B08D0194B9B6823F4E05218
:101B20007B68DB68164913438B607B681B6803F096
:101B30000803002B09D0124B9B6823F460427B689A
:101B40001B69DB000E4913438B6000F021F802464D
:101B50000B4B9B681B0903F00F030A49CB5C22FA6D
:101B600003F3094A1360094B1B681846FFF7CCF8CA
:101B7000002318461037BD4680BD00BF003C024020
:101B800000380240844700080000002004000020C4
:101B90002DE9B04384B000AF00237B600023FB60DD
:101BA00000233B600023BB60674B9B6803F00C0382
:101BB000082B0DD0082B00F2BD80002B02D0042B87
:101BC00003D0B7E0614BBB60B7E0614BBB60B4E0F2
:101BD0005D4B5B6803F03F037B605B4B5B6803F42A
:101BE0008003002B4DD0584B5B689B091A464FF081
:101BF000000340F2FF104FF0000102EA000803EA80
:101C00000109404649464FF000024FF000034B01E6
:101C100043EAD063420110461946B0EB080061EB7D
:101C200009014FF000024FF000038B0143EA90637B
:101C30008201121A63EB01034FF000004FF0000124
:101C4000D90041EA5271D00002460B4612EB08025D
:101C500043EB09034FF000004FF00001590241EA45
:101C6000D251500202460B46104619467B681A466E
:101C70004FF00003FEF7FCFA02460B461346FB60EA
:101C80004AE0314B5B689B091A464FF0000340F273
:101C9000FF104FF0000102EA000403EA01052046AC
:101CA00029464FF000024FF000034B0143EAD06396
:101CB000420110461946001B61EB05014FF000027E
:101CC0004FF000038B0143EA90638201121A63EB29
:101CD00001034FF000004FF00001D90041EA5271BA
:101CE000D00002460B46121945EB03034FF00000EB
:101CF0004FF00001990241EA9251900202460B46D0
:101D0000104619467B681A464FF00003FEF7B0FAFA
:101D100002460B461346FB600B4B5B681B0C03F043
:101D2000030301335B003B60FA683B68B2FBF3F3EB
:101D3000BB6002E0054BBB6000BFBB6818461037B4
:101D4000BD46BDE8B08300BF003802400024F40067
:101D500000127A0080B400AF034B1B681846BD46E2
:101D60005DF8047B704700BF0000002080B500AF25
:101D7000FFF7F0FF0246054B9B689B0A03F0070341
:101D80000349CB5C22FA03F3184680BD00380240B9
:101D90009447000880B500AFFFF7DCFF0246054B13
:101DA0009B685B0B03F007030349CB5C22FA03F348
:101DB000184680BD003802409447000880B582B0C4
:101DC00000AF78607B68002B01D1012341E07B6884
:101DD00093F83D30DBB2002B06D17B68002283F8FC
:101DE0003C207868FEF7A8FE7B68022283F83D203D
:101DF0007B681A687B6804331946104600F0BEF809
:101E00007B68012283F846207B68012283F83E200C
:101E10007B68012283F83F207B68012283F8402001
:101E20007B68012283F841207B68012283F84220ED
:101E30007B68012283F843207B68012283F84420D9
:101E40007B68012283F845207B68012283F83D20CE
:101E5000002318460837BD4680BD000080B485B019
:101E600000AF78607B6893F83D30DBB2012B01D086
:101E7000012346E07B68022283F83D207B681B68D3
:101E8000234A934222D07B681B68B3F1804F1DD058
:101E90007B681B681F4A934218D07B681B681E4AE8
:101EA000934213D07B681B681C4A93420ED07B6818
:101EB0001B681B4A934209D07B681B68194A9342EE
:101EC00004D07B681B68184A934211D17B681B6859
:101ED0009B6803F00703FB60FB68062B10D07B6850
:101EE0001B681A687B681B6842F001021A6007E0F1
:101EF0007B681B681A687B681B6842F001021A60E5
:101F0000002318461437BD465DF8047B704700BFB8
:101F1000000001400004004000080040000C0040A8
:101F200000040140004001400018004080B483B02C
:101F300000AF78607B681B681A6A41F21113134086
:101F4000002B0FD17B681B681A6A40F24443134090
:101F5000002B07D17B681B681A687B681B6822F01E
:101F600001021A607B68012283F83D200023184695
:101F70000C37BD465DF8047B7047000080B485B027
:101F800000AF786039607B681B68FB607B68404A03
:101F9000934213D07B68B3F1804F0FD07B683D4AEA
:101FA00093420BD07B683C4A934207D07B683B4A04
:101FB000934203D07B683A4A934208D1FB6823F0EE
:101FC0007003FB603B685B68FA681343FB607B68E7
:101FD0002F4A93422BD07B68B3F1804F27D07B6888
:101FE0002C4A934223D07B682B4A93421FD07B68B4
:101FF0002A4A93421BD07B68294A934217D07B68B8
:10200000284A934213D07B68274A93420FD07B68BB
:10201000264A93420BD07B68254A934207D07B68BF
:10202000244A934203D07B68234A934208D1FB6839
:1020300023F44073FB603B68DB68FA681343FB6082
:10204000FB6823F080023B685B691343FB607B689D
:10205000FA681A603B689A687B68DA623B681A68BB
:102060007B689A627B680A4A934203D07B680C4A79
:10207000934203D13B681A697B681A637B6801222B
:102080005A6100BF1437BD465DF8047B704700BF3E
:10209000000001400004004000080040000C004027
:1020A000000401400040014000440140004801405C
:1020B00000180040001C00400020004080B485B0A3
:1020C00000AF786039607B6893F83C30012B01D118
:1020D00002235AE07B68012283F83C207B680222BD
:1020E00083F83D207B681B685B68FB607B681B682E
:1020F0009B68BB60FB6823F07003FB603B681B6858
:10210000FA681343FB607B681B68FA685A607B6857
:102110001B68214A934222D07B681B68B3F1804F31
:102120001DD07B681B681D4A934218D07B681B68D2
:102130001B4A934213D07B681B681A4A93420ED005
:102140007B681B68184A934209D07B681B68174A52
:10215000934204D07B681B68154A93420CD1BB683C
:1021600023F08003BB603B685B68BA681343BB60C5
:102170007B681B68BA689A607B68012283F83D20FF
:102180007B68002283F83C20002318461437BD46A4
:102190005DF8047B704700BF000001400004004070
:1021A00000080040000C00400004014000400140D5
:1021B0000018004080B582B000AF78607B68002BCB
:1021C00001D101233FE07B6893F83D30DBB2002B67
:1021D00006D17B68002283F83C207868FEF7F8FC83
:1021E0007B68242283F83D207B681B68DA687B6863
:1021F0001B6822F40052DA60786800F07DFE7B688C
:102200001B681A697B681B6822F490421A617B681C
:102210001B685A697B681B6822F02A025A617B6836
:102220001B68DA687B681B6842F40052DA607B68DE
:1022300000221A647B68202283F83D207B682022DC
:1022400083F83E20002318460837BD4680BD80B580
:102250008AB002AFF860B9603B601346FB80002390
:102260007B61FB6893F83D30DBB2202B7CD1BB68EF
:10227000002B02D0FB88002B01D1012375E0FB6805
:1022800093F83C30012B01D102236EE0FB68012260
:1022900083F83C20FB6800221A64FB68212283F843
:1022A0003D20FEF775FD7861FB68FA889A84FB682B
:1022B000FA88DA84FB689B68B3F5805F08D1FB6815
:1022C0001B69002B04D10023FB61BB68BB6103E0E9
:1022D000BB68FB610023BB61FB68002283F83C20E4
:1022E0002AE03B6800937B6900228021F86800F0B7
:1022F000C1FB0346002B01D0032336E0FB69002B12
:102300000BD1BB691B881A46FB681B68C2F3080225
:102310005A60BB690233BB6107E0FB691A78FB684E
:102320001B685A60FB690133FB61FB68DB8C9BB265
:10233000013B9AB2FB68DA84FB68DB8C9BB2002B12
:10234000CFD13B6800937B6900224021F86800F000
:1023500091FB0346002B01D0032306E0FB682022FB
:1023600083F83D20002300E0022318462037BD46B5
:1023700080BD80B58AB002AFF860B9603B6013469B
:10238000FB8000237B61FB6893F83E30DBB2202B9F
:1023900040F08C80BB68002B02D0FB88002B01D161
:1023A000012384E0FB6893F83C30012B01D1022328
:1023B0007DE0FB68012283F83C20FB6800221A6460
:1023C000FB68222283F83E20FB6800221A63FEF796
:1023D000DFFC7861FB68FA889A85FB68FA88DA8501
:1023E000FB689B68B3F5805F08D1FB681B69002B15
:1023F00004D10023FB61BB68BB6103E0BB68FB61E8
:102400000023BB61FB68002283F83C2043E03B686B
:1024100000937B6900222021F86800F02BFB034623
:10242000002B01D0032342E0FB69002B0CD1FB6899
:102430001B685B689BB2C3F308039AB2BB691A803E
:10244000BB690233BB611FE0FB689B68B3F5805F2B
:1024500007D0FB689B68002B0AD1FB681B69002B27
:1024600006D1FB681B685B68DAB2FB691A7008E08A
:10247000FB681B685B68DBB203F07F03DAB2FB69C1
:102480001A70FB690133FB61FB68DB8D9BB2013B7A
:102490009AB2FB68DA85FB68DB8D9BB2002BB6D164
:1024A000FB68202283F83E20002300E00223184628
:1024B0002037BD4680BD80B584B000AFF860B960FC
:1024C0001346FB80FB6893F83E30DBB2202B1DD116
:1024D000BB68002B02D0FB88002B01D1012316E042
:1024E000FB6893F83C30012B01D102230FE0FB681D
:1024F000012283F83C20FB6800221A63FB881A46FD
:10250000B968F86800F024FB034600E0022318468F
:102510001037BD4680BD000080B5BAB000AF78600E
:102520007B681B681B68C7F8E4307B681B68DB6846
:10253000C7F8E0307B681B685B69C7F8DC300023B4
:10254000C7F8D8300023C7F8D430D7F8E43003F008
:102550000F03C7F8D830D7F8D830002B0FD1D7F8F1
:10256000E43003F02003002B09D0D7F8E03003F06B
:102570002003002B03D0786800F003FC56E2D7F864
:10258000D830002B00F0DE80D7F8DC3003F00103F8
:10259000002B06D1D7F8E03003F49073002B00F045
:1025A000D180D7F8E43003F00103002B0BD0D7F82B
:1025B000E03003F48073002B05D07B681B6C43F084
:1025C00001027B681A64D7F8E43003F00403002B9F
:1025D0000BD0D7F8DC3003F00103002B05D07B686B
:1025E0001B6C43F002027B681A64D7F8E43003F0F6
:1025F0000203002B0BD0D7F8DC3003F00103002BD3
:1026000005D07B681B6C43F004027B681A64D7F822
:10261000E43003F00803002B11D0D7F8E03003F0CA
:102620002003002B05D1D7F8DC3003F00103002B89
:1026300005D07B681B6C43F008027B681A647B68DA
:102640001B6C002B00F0ED81D7F8E43003F0200381
:10265000002B08D0D7F8E03003F02003002B02D085
:10266000786800F08EFB7B681B685B6903F04003B1
:10267000402B0CBF01230023DBB2C7F8D4307B68AA
:102680001B6C03F00803002B03D1D7F8D430002BC8
:102690004FD0786800F096FA7B681B685B6903F09E
:1026A0004003402B41D17B681B681433C7F89C3032
:1026B000D7F89C3053E8003FC7F89830D7F89830E7
:1026C00023F04003C7F8D0307B681B681433D7F879
:1026D000D020C7F8A820C7F8A430D7F8A410D7F89E
:1026E000A82041E80023C7F8A030D7F8A030002B7D
:1026F000D9D17B689B6B002B13D07B689B6B7D4A89
:102700001A657B689B6B1846FEF7F3FC0346002BAB
:1027100016D07B689B6B1B6D7A68926B104698474E
:102720000EE0786800F090F90AE0786800F08CF923
:1027300006E0786800F088F97B6800221A6470E18E
:1027400000BF6EE17B681B6B012B40F04A81D7F81C
:10275000E43003F01003002B00F04381D7F8E030A1
:1027600003F01003002B00F03C810023BB607B686A
:102770001B681B68BB607B681B685B68BB60BB68D1
:102780007B681B685B6903F04003402B40F0B4801A
:102790007B689B6B1B685B68A7F8BE30B7F8BE30E0
:1027A000002B00F040817B689B8DB7F8BE209A42D9
:1027B00080F039817B68B7F8BE20DA857B689B6B37
:1027C000DB69B3F5807F00F088807B681B680C3381
:1027D000C7F88830D7F8883053E8003FC7F884300E
:1027E000D7F8843023F48073C7F8B8307B681B684F
:1027F0000C33D7F8B820C7F89420C7F89030D7F832
:102800009010D7F8942041E80023C7F88C30D7F80F
:102810008C30002BD9D17B681B6814337B677B6FAE
:1028200053E8003F3B673B6F23F00103C7F8B43028
:102830007B681B681433D7F8B420C7F88020FB6787
:10284000F96FD7F8802041E80023BB67BB6F002BEE
:10285000E1D17B681B6814333B663B6E53E8003F55
:10286000FB65FB6D23F04003C7F8B0307B681B6845
:102870001433D7F8B020FA66BB66B96EFA6E41E839
:1028800000237B667B6E002BE3D17B68202283F8DC
:102890003E207B6800221A637B681B680C33FB6454
:1028A000FB6C53E8003FBB64BB6C23F01003C7F81C
:1028B000AC307B681B680C33D7F8AC20BA657B65FD
:1028C000796DBA6D41E800233B653B6D002BE3D188
:1028D0007B689B6B1846FEF79CFB7B689A8D7B6838
:1028E000DB8D9BB2D31A9BB21946786800F0B6F81C
:1028F00099E000BF8B2C00087B689A8D7B68DB8D8C
:102900009BB2D31AA7F8CE307B68DB8D9BB2002B2D
:1029100000F08B80B7F8CE30002B00F086807B680B
:102920001B680C33BB63BB6B53E8003F7B637B6B63
:1029300023F49073C7F8C8307B681B680C33D7F852
:10294000C8207A643B64396C7A6C41E80023FB63ED
:10295000FB6B002BE3D17B681B6814337B627B6AC3
:1029600053E8003F3B623B6A23F00103C7F8C430E1
:102970007B681B681433D7F8C4203A63FB62F96A9A
:102980003A6B41E80023BB62BB6A002BE3D17B6852
:10299000202283F83E207B6800221A637B681B6834
:1029A0000C333B613B6953E8003FFB60FB6823F05D
:1029B0001003C7F8C0307B681B680C33D7F8C02001
:1029C000FA61BB61B969FA6941E800237B617B69FF
:1029D000002BE3D1B7F8CE301946786800F03EF806
:1029E00023E0D7F8E43003F08003002B09D0D7F8B8
:1029F000E03003F08003002B03D0786800F059F931
:102A000014E0D7F8E43003F04003002B0ED0D7F8E1
:102A1000E03003F04003002B08D0786800F099F90B
:102A200004E000BF02E000BF00E000BFE837BD46A1
:102A300080BD00BF80B483B000AF786000BF0C37AA
:102A4000BD465DF8047B704780B483B000AF78600A
:102A500000BF0C37BD465DF8047B704780B483B07F
:102A600000AF78600B467B8000BF0C37BD465DF839
:102A7000047B704780B590B000AFF860B9603B60F0
:102A80001346FB7150E0BB6CB3F1FF3F4CD0BB6C05
:102A9000002B07D0FEF77CF902463B68D31ABA6CCC
:102AA0009A4241D2FB681B680C33BB62BB6A53E895
:102AB000003F7B627B6A23F4D073FB63FB681B6877
:102AC0000C33FA6B7A633B63396B7A6B41E8002312
:102AD000FB62FB6A002BE5D1FB681B6814337B614A
:102AE0007B6953E8003F3B613B6923F00103BB6313
:102AF000FB681B681433BA6B3A62FB61F9693A6A86
:102B000041E80023BB61BB69002BE5D1FB682022B3
:102B100083F83D20FB68202283F83E20FB680022DA
:102B200083F83C2003230FE0FB681B681A68BB682E
:102B30001340BA689A420CBF01230023DBB21A4645
:102B4000FB799A429FD0002318464037BD4680BD8E
:102B500080B485B000AFF860B9601346FB80FB68B5
:102B6000BA689A62FB68FA889A85FB68FA88DA85FF
:102B7000FB6800221A64FB68222283F83E20FB686F
:102B8000002283F83C20FB681B68DA68FB681B683E
:102B900042F48072DA60FB681B685A69FB681B6844
:102BA00042F001025A61FB681B68DA68FB681B6827
:102BB00042F02002DA60002318461437BD465DF863
:102BC000047B704780B495B000AF78607B681B6869
:102BD0000C337B637B6B53E8003F3B633B6B23F41D
:102BE0009073FB647B681B680C33FA6C3A64FB637C
:102BF000F96B3A6C41E80023BB63BB6B002BE5D15A
:102C00007B681B6814333B623B6A53E8003FFB61FF
:102C1000FB6923F00103BB647B681B681433BA6C47
:102C2000FA62BB62B96AFA6A41E800237B627B6A96
:102C3000002BE5D17B681B6B012B19D17B681B68CE
:102C40000C33FB60FB6853E8003FBB60BB6823F0BC
:102C500010037B647B681B680C337A6CBA617B6100
:102C60007969BA6941E800233B613B69002BE5D1F2
:102C70007B68202283F83E207B6800221A6300BF15
:102C80005437BD465DF8047B704780B584B000AF13
:102C900078607B689B6BFB60FB680022DA85FB68D1
:102CA0000022DA84F868FFF7CFFE00BF1037BD4678
:102CB00080BD80B485B000AF78607B6893F83D300C
:102CC000DBB2212B3ED17B689B68B3F5805F14D1CA
:102CD0007B681B69002B10D17B681B6AFB60FB685B
:102CE0001B881A467B681B68C2F308025A607B681F
:102CF0001B6A9A1C7B681A6208E07B681B6A591C75
:102D00007A6811621A787B681B685A607B68DB8C72
:102D10009BB2013B9BB27A681946D184002B0FD13C
:102D20007B681B68DA687B681B6822F08002DA60C7
:102D30007B681B68DA687B681B6842F04002DA60D7
:102D4000002300E0022318461437BD465DF8047BDB
:102D5000704780B582B000AF78607B681B68DA6826
:102D60007B681B6822F04002DA607B68202283F8CF
:102D70003D207868FFF75EFE002318460837BD4601
:102D800080BD80B58CB000AF78607B6893F83E3032
:102D9000DBB2222B40F0AB807B689B68B3F5805F91
:102DA00017D17B681B69002B13D10023FB627B6862
:102DB0009B6ABB627B681B685B689BB2C3F30803BA
:102DC0009AB2BB6A1A807B689B6A9A1C7B689A627B
:102DD00026E07B689B6AFB620023BB627B689B6882
:102DE000B3F5805F07D07B689B68002B0AD17B68B6
:102DF0001B69002B06D17B681B685B68DAB2FB6A33
:102E00001A7008E07B681B685B68DBB203F07F0325
:102E1000DAB2FB6A1A707B689B6A5A1C7B689A62FA
:102E20007B68DB8D9BB2013B9BB27A681946D185EA
:102E3000002B5AD17B681B68DA687B681B6822F01C
:102E40002002DA607B681B68DA687B681B6822F402
:102E50008072DA607B681B685A697B681B6822F0A5
:102E600001025A617B68202283F83E207B681B6B3D
:102E7000012B35D17B6800221A637B681B680C33F9
:102E80007B617B6953E8003F3B613B6923F01003A2
:102E90007B627B681B680C337A6A3A62FB61F96972
:102EA0003A6A41E80023BB61BB69002BE5D17B682E
:102EB0001B681B6803F01003102B0AD10023FB6072
:102EC0007B681B681B68FB607B681B685B68FB603A
:102ED000FB687B689B8D19467868FFF7BFFD02E0B1
:102EE000786800F023FB002302E0002300E00223C7
:102EF00018463037BD4680BD2DE9F04F9FB000AF7A
:102F0000F866FB6E1B681B6923F44050FB6ED968A2
:102F1000FB6E1A6840EA01031361FB6E9A68FB6E50
:102F20001B691A43FB6E5B691A43FB6EDB69134333
:102F30003B67FB6E1B68DB6823F4164121F00C0134
:102F4000FB6E1A683B6F0B43D360FB6E1B685B69BB
:102F500023F44070FB6E9969FB6E1A6840EA010326
:102F60005361FB6E1A68C54B9A4204D0FB6E1A6817
:102F7000C34B9A4203D1FEF70DFF786702E0FEF7DC
:102F8000F5FE7867FB6EDB69B3F5004F40F0B68065
:102F90007B6F1C464FF0000522462B469118396482
:102FA0005B417B64D7E91023121945EB03034FF013
:102FB00000004FF00001D90041EA5271D0000246F2
:102FC0000B46111939666B417B66FB6E5B681A46CE
:102FD0004FF000039118B9635B41FB63D7E90E23FF
:102FE000D7E91801FDF744F902460B46A54BA3FBB0
:102FF00002235B091E017B6F1C464FF00005224631
:103000002B46911839635B417B63D7E90C23121976
:1030100045EB03034FF000004FF00001D90041EAF7
:103020005271D00002460B461119B9656B41FB6520
:10303000FB6E5B681A464FF000039118B9625B4162
:10304000FB62D7E90A23D7E91601FDF711F9024619
:103050000B468C4BA3FB02135B09642101FB03F3BA
:10306000D31ADB003233874AA2FB03235B095B00E0
:1030700003F4F8731E447B6F18464FF000010246BC
:103080000B4694183C625B417B62D7E90823121817
:1030900041EB03034FF000044FF00005DD0045EA6B
:1030A0005275D40022462B4614183C654B417B6573
:1030B000FB6E5B681A464FF000039118B9615B41E3
:1030C000FB61D7E90623D7E91401FDF7D1F80246E1
:1030D0000B466C4BA3FB02135B09642101FB03F35A
:1030E000D31ADB003233674AA2FB03235B0903F0E8
:1030F0000702FB6E1B6832449A60B9E07B6F1C4686
:103100004FF0000522462B46911839615B417B61E7
:10311000D7E90423121945EB03034FF000004FF0E9
:103120000001D90041EA5271D00002460B4612EB71
:10313000040843EB0509FB6E5B6818464FF000017D
:103140004FF000024FF000038B0043EA90738200BF
:1031500040464946FDF78CF802460B46494BA3FB17
:1031600002235B091E017B6F18464FF000010246E7
:103170000B469418BC605B41FB60D7E90223121830
:1031800041EB03034FF000044FF00005DD0045EA7A
:103190005275D40022462B461418BC644B41FB6484
:1031A000FB6E5B6818464FF000014FF000024FF0D5
:1031B00000038B0043EA90738200D7E91201FDF708
:1031C00057F802460B462F4BA3FB02135B09642101
:1031D00001FB03F3D31A1B0132332A4AA2FB032358
:1031E0005B0903F0F0031E447B6F18464FF00001AB
:1031F00002460B4694183C605B417B60D7E9002394
:10320000121841EB03034FF000044FF00005DD00FE
:1032100045EA5275D40022462B4612EB000A43EBD6
:10322000010BFB6E5B6818464FF000014FF0000287
:103230004FF000038B0043EA9073820050465946DA
:10324000FDF716F802460B460E4BA3FB02135B0973
:10325000642101FB03F3D31A1B013233094AA2FB99
:1032600003235B0903F00F02FB6E1B6832449A6074
:1032700000BF7C37BD46BDE8F08F00BF00100140A5
:10328000001401401F85EB5180B584B000AF0346A8
:10329000FB80FB88C3F1FF2303F57F03FA33FB8137
:1032A0000B48FEF7DBFD0A4B1B68FA895A6203E004
:1032B000074B1B685B6AFB81FB894FF6F9729342EF
:1032C000F6D90348FEF732FE00BF1037BD4680BD79
:1032D000A000002080B586B000AF3B1D00221A6020
:1032E0005A609A60DA601A6104237B600123BB6034
:1032F0000023FB6002233B613B1D19460348FDF799
:103300001BFF00BF1837BD4680BD00BF0000024054
:1033100080B586B000AF3B1D00221A605A609A60EB
:10332000DA601A6104237B600023BB600123FB6029
:1033300002233B613B1D19460348FDF7FDFE00BF1C
:103340001837BD4680BD00BF0000024080B500AF09
:10335000FFF7C0FF002204210748FEF7A1F8142060
:10336000FDF722FD012204210348FEF799F81E20F3
:10337000FFF78AFF00BF80BD0000024080B582B029
:1033800000AF0023FB71FFF7C3FF05E0FB790133BA
:10339000FB710120FFF778FF04211548FEF768F85C
:1033A0000346002B02D0FB79632BEFD9FB79632B0B
:1033B00001D9012318E00023FB7105E0FB790133FB
:1033C000FB710120FFF760FF04210948FEF750F868
:1033D0000346002B02D1FB79632BEFD9FB79632BDA
:1033E00001D9012300E0002318460837BD4680BDFF
:1033F0000000024080B582B000AF0023FB7105E001
:10340000FB790133FB710120FFF73EFF04211648D1
:10341000FEF72EF80346002B02D0FB79632BEFD981
:103420000023FB7105E0FB790133FB710120FFF7FD
:103430002BFF04210C48FEF71BF80346002B02D19A
:10344000FB79632BEFD92820FFF71EFF04210648E4
:10345000FEF70EF80346002B01D0012300E0002305
:1034600018460837BD4680BD0000024080B582B0D6
:1034700000AF0023BB710023FB710CE0BB795B0044
:10348000BB71FFF7B7FF03461A46BB791343BB7105
:10349000FB790133FB71FB79072BEFD9BB79184618
:1034A0000837BD4680BD80B500AFFFF74FFFFFF77F
:1034B00065FF0346184680BD90B585B000AF7860C3
:1034C000FFF744FFFFF75AFF0346002B27D10023E5
:1034D000FB730CE0FC7BFFF7C9FF03461A4607F1BC
:1034E0001003234403F8082CFB7B0133FB73FB7BA5
:1034F000042BEFD93B7A1A467B7A1344BA7A1344E9
:10350000FA7A13443A7B93420BD13A7A7B681A7069
:103510007B6801337B60BA7A7B681A7001E0012313
:1035200000E0002318461437BD4690BD80B582B038
:1035300000AF78607B68294A93424AD12748FDF75B
:103540005DF9274B1B78184600F09AF8254B1B882D
:103550001BB2002B38DB234B1B8803F48043002B6A
:1035600011D01F4B1B780A2B03D01E4B00221A8050
:103570002AE01C4B1B886FEA43436FEA53439AB21D
:10358000184B1A8020E0164B1B780D2B07D1154BDA
:103590001B8843F480439AB2124B1A8014E0114BFB
:1035A0001B88C3F30D030E4A11780F4AD1540D4BFB
:1035B0001B8801339AB20B4B1A800A4B1B88002BD5
:1035C00002D0084B00221A80012205490348FEF769
:1035D00072FF00BF0837BD4680BD00BFE800002075
:1035E000300100209000002034010020014B1868B9
:1035F000704700BF0C00002070B50D4D0D4C641BD2
:10360000A4100026A64209D10B4D0C4C01F0A2F8E3
:10361000641BA4100026A64205D170BD55F8043BDA
:1036200098470136EEE755F8043B98470136F2E734
:103630003C4800083C4800083C4800084048000856
:1036400002440346934200D1704703F8011BF9E797
:103650000FB40A4B13B51C6824B1A36913B92046F3
:1036600000F0C4FA05AB049AA1680193204600F06B
:103670009DFC02B0BDE8104004B070470C00002073
:10368000094B13B51C68014634B1A36923B90190F5
:10369000204600F0ABFA0199A268204602B0BDE8CE
:1036A000104000F047BF00BF0C0000202DE9F74399
:1036B0001D465D4B1F6804460E46904627B1BB6908
:1036C00013B9384600F092FA584B9C4267D17C6897
:1036D000B8F1020F06D0B8F1010F00F29F80002D63
:1036E000C0F29C80636EDB0705D4A389980502D4E1
:1036F000A06D00F019FB2146384600F0E3F9616B3C
:1037000041B104F14403994202D0384600F07AFBFB
:10371000002363630023A3616360A389190603D5B3
:103720002169384600F06EFBA38923F44A6323F035
:103730000303B8F1020FA3816CD001AB6A462146A6
:10374000384600F0F3FAA3891843A081002D30D148
:10375000009D284600F04EFB0646002855D1DDF8B6
:103760000090A9454AD14FF0FF350022A26004F134
:103770004702226022610122B4F90C306261626E5C
:1037800043F00203D207A38105D413F4007F02D1D2
:10379000A06D00F0CAFA284603B0BDE8F083244BC0
:1037A0009C4201D1BC6893E7224B9C4208BFFC6855
:1037B0008EE7002ECDD0BB6913B9384600F016FA5B
:1037C000B8F1010F08BFA389266004BF43F00103CD
:1037D000A381A28912F00803C4E904651CD0D307B1
:1037E00041BF00236D42A360A56158BFA560656E0F
:1037F00015F0010515D112F4007FC8E7484600F026
:10380000F9FA06460028AED04D46A38943F080035E
:10381000A381D0E70025A8E7A360E8E74FF0FF35D4
:10382000B9E70025B7E700BF0C000020C04700083B
:10383000E0470008A0470008F8B50E4614460546C4
:1038400018B183690BB900F0D1F9214B9C422BD1FF
:103850006C68A369A360A3891A072FD523696BB38A
:1038600023692068C01A6369F6B28342374604DCD4
:103870002146284600F026F930BBA368013BA3602F
:1038800023685A1C22601E7063690130834204D091
:10389000A389DB0706D50A2E04D12146284600F06D
:1038A00011F988B93846F8BD0A4B9C4201D1AC6881
:1038B000CFE7094B9C4208BFEC68CAE7214628467F
:1038C00000F00CF80028CBD04FF0FF37EAE700BF3C
:1038D000C0470008E0470008A0470008324B70B519
:1038E0001D6806460C4625B1AB6913B9284600F0A1
:1038F0007DF92E4B9C420FD16C68A389B4F90C2042
:1039000019072CD4DD0611D40923336042F040039B
:10391000A3814FF0FF303EE0254B9C4201D1AC68C3
:10392000EBE7244B9C4208BFEC68E6E7580712D54A
:10393000616B41B104F14403994202D0304600F07A
:1039400061FA00236363A38923F02403A381002386
:10395000636023692360A38943F00803A38123697B
:103960004BB9A38903F42073B3F5007F03D021463C
:10397000304600F0FFF9A089B4F90C2010F00103E3
:103980000AD00023A36063695B42A361236943B942
:1039900010F08000BAD170BD810758BF6369A36081
:1039A000F4E70020F7E700BF0C000020C047000844
:1039B000E0470008A04700088A892DE9F041054644
:1039C00010070C4658D44B68002B05DC0B6C002B01
:1039D00002DC0020BDE8F081E66A002EF9D0002369
:1039E00012F480522F682B6032D0606DA3895A0781
:1039F00005D56368C01A636B0BB1236CC01A002332
:103A00000246E66A216A2846B047431CA38906D1CC
:103A100029681D292CD82A4ACA40D60728D5002251
:103A20006260D9042269226004D5421C01D12B684E
:103A300003B96065616B2F600029CAD004F14403AB
:103A4000994202D0284600F0DDF900206063C1E70A
:103A5000216A01232846B047411CC7D12B68002B9F
:103A6000C4D01D2B01D0162B01D12F60B1E7A38943
:103A700043F04003A381ADE70F69002FA9D093075E
:103A80000E6808BF4B690F6018BF0023A6EB07083C
:103A90008B60B8F1000F9CDD216AA66A43463A4666
:103AA0002846B047002806DCA38943F04003A381E1
:103AB0004FF0FF308EE70744A8EB0008E9E700BFAE
:103AC0000100402038B50B6905460C4613B90025A6
:103AD000284638BD18B183690BB900F087F8144B3C
:103AE0009C421BD16C68B4F90C30002BEFD0626E95
:103AF000D00704D4990502D4A06D00F015F928462A
:103B00002146FFF759FF636EDA070546E0D4A38923
:103B10009B05DDD4A06D00F008F9D9E7054B9C4268
:103B200001D1AC68DFE7044B9C4208BFEC68DAE7E0
:103B3000C0470008E0470008A0470008002310B570
:103B40000446C0E90033C0E90433836081814366E1
:103B5000C2818361194608225C30FFF771FD054B75
:103B60006362054BA362054BE362054B246223634A
:103B700010BD00BFE5450008074600083F460008A5
:103B800063460008014900F0AFB800BFC53A00081D
:103B900070B54A1E682555430E4605F1740100F0C4
:103BA00081F9044640B10021C0E900160C30A06044
:103BB00005F16802FFF744FD204670BD014800F0A2
:103BC000B3B800BF3D010020014800F0AEB800BF0F
:103BD0003D010020014800F0A7B800BF38010020D7
:103BE000014800F0A2B800BF3801002010B504461B
:103BF000FFF7F0FFA3691BB1BDE81040FFF7F0BF6E
:103C0000C4E912332365134B134A1B68A262A34213
:103C100004BF0123A361204600F020F86060204625
:103C200000F01CF8A060204600F018F80022E060C8
:103C300004216068FFF782FFA06801220921FFF7D5
:103C40007DFFE06802221221FFF778FF0123A361C4
:103C5000D2E700BF9C470008853B0008F8B507463F
:103C6000FFF7ACFF1E4B1E68B36913B93046FFF770
:103C7000BDFF4836D6E90134013B03D533680BB3A9
:103C80003668F7E7B4F90C50D5B9164BE36004F188
:103C90005800656600F047F8FFF796FFC4E9015544
:103CA000C4E904552560A5610822294604F15C0099
:103CB000FFF7C6FCC4E90D55C4E912552046F8BD0E
:103CC0006834D9E704213846FFF762FF04463060C4
:103CD0000028D5D1FFF778FF0C233B60EEE700BF4B
:103CE0009C4700080100FFFF2DE9F843064688467F
:103CF00000F148040027D4E90195B9F1010905D57F
:103D00002468002CF7D13846BDE8F883AB89012B35
:103D100007D9B5F90E30013303D029463046C047E4
:103D200007436835E9E770477047704770B50E463E
:103D3000B1F90E10002996B014461D4607DA00238B
:103D40002B60B3891A0610D44FF480630EE06A46E4
:103D500000F0AEFC0028F2DB019A02F47042A2F5FA
:103D600000535A425A412A60EEE740230020236064
:103D700016B070BD8B8973B59D0706460C4607D5F6
:103D800004F14703236023610123636102B070BD26
:103D900001AB6A46FFF7CAFF00990546304600F0BE
:103DA00081F848B9B4F90C309A05EFD423F0030335
:103DB00043F00203A381E3E70D4BB362A3892060C4
:103DC00043F08003A381009B6361019B20615BB191
:103DD000B4F90E10304600F07DFC28B1A38923F021
:103DE000030343F00103A381A0890543A581CDE727
:103DF000853B0008024B0146186800F053B800BF2D
:103E00000C00002037B5002948D051F8043C01903F
:103E1000002BA1F10404B8BFE41800F07DFC204A97
:103E200001981368154633B96360146003B0BDE8A8
:103E3000304000F077BCA3420BD92168621893424E
:103E400004BF1A685B68636004BF521822602C606C
:103E5000ECE71A465B680BB1A342FAD91168551812
:103E6000A5420BD1246821445418A3421160DDD12E
:103E70001C685B68536021441160D7E702D90C23AA
:103E80000360D3E7256861198B4204BF19685B683A
:103E9000636004BF491921605460C7E703B030BDB7
:103EA00094000020F8B5CD1C25F0030508350C2D35
:103EB00038BF0C25002D064601DBA94203D90C238F
:103EC00033600020F8BD00F027FC21490A68144641
:103ED0009CB9204F3B6823B92146304600F072FB65
:103EE00038602946304600F06DFB431C23D10C237B
:103EF0003360304600F016FCE3E723685B1B17D401
:103F00000B2B03D923601C44256004E06368A242A4
:103F10000CBF0B605360304600F004FC04F10B0052
:103F2000231D20F00700C21ACCD01B1AA350C9E7EA
:103F300022466468CCE7C41C24F00304A042E3D00A
:103F4000211A304600F03EFB0130DDD1CFE700BF43
:103F500094000020980000209368013B002B10B4CF
:103F6000936008DA9469A34201DB0A2903D15DF862
:103F7000044BFFF761BC1368581C106019700846A9
:103F80005DF8044B7047F8B506460F461446D51841
:103F9000AC4201D1002007E014F8011B3A4630463C
:103FA000FFF7DAFF431CF3D1F8BD00002DE9F04F15
:103FB0000D469DB014469846064618B183690BB964
:103FC000FFF714FE894B9D421BD175686B6ED907B4
:103FD00005D4AB899A0502D4A86DFFF7A5FEAB897D
:103FE0001B0701D52B69EBB929463046FFF776FC54
:103FF000C0B16B6EDC070ED54FF0FF301DB0BDE8D1
:10400000F08F7B4B9D4201D1B568DFE7794B9D4234
:1040100008BFF568DAE7AB899805EDD4A86DFFF71E
:1040200084FEE9E70023099320238DF82930CDF899
:104030000C803023DFF8C0818DF82A304FF0010961
:1040400023469A4613F8012B0AB1252AF9D1BAEB77
:10405000040B0BD05B46224629463046FFF793FF00
:10406000013000F0AA80099A5A4409929AF8003067
:10407000002B00F0A28000234FF0FF32CDE9052392
:104080000AF1010A049307938DF853301A935446AA
:10409000052214F8011B5848FCF79AF8049AD8B97D
:1040A000D10644BF20238DF85330130744BF2B2380
:1040B0008DF853309AF800302A2B15D0079A5446C1
:1040C00000204FF00A0C214611F8013B303B092B30
:1040D0004ED9B0B1079214E0A0EB080309FA03F33C
:1040E00013430493A246D2E7039B191D1B68039157
:1040F000002BBBBF5B4242F0020207930793B8BF9D
:10410000049223782E2B0CD163782A2B35D1039B74
:104110001A1D1B680392002BB8BF4FF0FF33023407
:104120000593DFF8E4A0217803225046FCF750F80D
:1041300040B14023A0EB0A0003FA00F0049B0343C4
:104140000134049314F8011B2C488DF82810062222
:10415000FCF73EF800283FD0294B1BBB039B0733DD
:1041600023F0070308330393099B3B44099367E754
:104170000CFB02320C460120A5E700230134059315
:1041800019464FF00A0C204610F8012B303A092A44
:1041900003D9002BC5D00591C3E70CFB01210446D0
:1041A0000123F0E703AB00932A46164B04A93046DF
:1041B000AFF300800746781CD6D16B6ED90705D4C3
:1041C000AB899A0502D4A86DFFF7AFFDAB895B06FA
:1041D0003FF512AF099811E703AB00932A46094B4C
:1041E00004A9304600F080F8E4E700BFC0470008AB
:1041F000E0470008A0470008004800080A480008F7
:1042000000000000873F0008064800082DE9F0473D
:10421000164699468A680B69DDF820809342B8BF3C
:104220001346336091F8432007460C460AB1013328
:1042300033602368990642BF3368023333602568D0
:1042400015F0060506D104F1190AE36832689B1AD5
:10425000AB4226DC94F84320131E226818BF0123CA
:1042600092062BD404F1430249463846C047013038
:104270001ED02368E568326803F00603042B08BFEC
:10428000AD1AA36822690CBF25EAE57500259342A3
:10429000C4BF9B1AED1800261A34B5421AD100206B
:1042A00008E00123524649463846C047013003D151
:1042B0004FF0FF30BDE8F0870135C6E7E1185A1C22
:1042C000302081F84300224494F8451082F84310CE
:1042D0000233C7E70123224649463846C04701302A
:1042E000E6D00136D9E700002DE9FF470C4691469C
:1042F000277E0C99782F80469A4604F1430207D80E
:10430000622F0AD8002F00F0D880582F00F0A38029
:1043100004F1420684F842703AE0A7F16303152BDA
:10432000F6D801A050F823F0814300089543000817
:10433000114300081143000811430008114300080D
:104340009543000811430008114300081143000879
:1043500011430008A1440008C54300088344000835
:104360001143000811430008C3440008114300082A
:10437000C543000811430008114300088B4400089E
:104380000B681A1D1B680A6004F1420684F842306B
:104390000123A3E0256808682E0600F104030AD56E
:1043A00005680B60002D03DA2D236D4284F843303D
:1043B0005E480A2319E015F0400F05680B6018BF2E
:1043C0002DB2EFE70B682568181D0860280601D597
:1043D0001D6802E06906FBD51D8854486F2F0CBF8D
:1043E00008230A23002184F843106668A660002E83
:1043F000A2BF216821F0040121600DB9002E4DD02B
:104400001646B5FBF3F103FB1157C75D06F8017DB6
:104410002F46BB420D46F4D9082B0BD12368DF078A
:1044200008D5236961689942DEBF302306F8013C54
:1044300006F1FF36921B2261CDF800A04B4603AA7D
:1044400021464046FFF7E2FE01304CD14FF0FF30ED
:1044500004B0BDE8F087354884F8457023680E68DD
:104460001F0656F8045B0E6014D5D90744BF43F00D
:10447000200323601DB9236823F020032360102349
:10448000B0E7236843F0200323607823284884F8AA
:104490004530E3E75E0648BFADB2E6E71646BBE748
:1044A0000B68266860691D1D0D6035061B6801D507
:1044B000186002E07106FBD51880002323611646C0
:1044C000BAE70B681A1D0A601E6862680021304650
:1044D000FBF77EFE08B1801B6060636823610023E8
:1044E00084F84330A8E72369324649464046D0471E
:1044F0000130ABD023689B0713D4E068039B98423C
:10450000B8BF1846A4E70123324649464046D04783
:1045100001309BD00135E36803995B1AAB42F2DCB2
:10452000EBE7002504F11906F5E700BF1148000884
:104530002248000870B50D461446064618B1836936
:104540000BB9FFF753FB1C4B9C4224D17468636E7C
:10455000D80705D4A389990502D4A06DFFF7E4FB21
:10456000A368013B002BA36005DAA26993421CDB20
:10457000EBB20A2B19D023685A1C22601D70EDB2D1
:10458000636EDA0705D4A3899B0502D4A06DFFF7FB
:10459000CCFB284670BD094B9C4201D1B468D6E7DC
:1045A000074B9C4208BFF468D1E7294622463046B3
:1045B000FFF742F90546E3E7C0470008E047000877
:1045C000A047000838B5064D0023044608462B6076
:1045D000FCF736FA431C02D12B6803B1236038BDC7
:1045E0004001002010B50C46B1F90E1000F0A0F803
:1045F0000028ABBF636DA3891B1823F48053ACBFA5
:104600006365A38110BD2DE9F0411F468B89DB0551
:1046100005460C46164605D5B1F90E1002230022B8
:1046200000F068F8A389B4F90E1023F48053A38135
:1046300032463B462846BDE8F04100F017B810B5B9
:104640000C46B1F90E1000F055F8431CA38915BFB4
:10465000606523F4805343F48053A38118BFA38182
:1046600010BDB1F90E1000F013B8000038B5074DB9
:1046700004460846114600222A601A46FCF7ECF868
:10468000431C02D12B6803B1236038BD40010020D8
:1046900038B5064D0023044608462B60FCF708F9A0
:1046A000431C02D12B6803B1236038BD40010020B8
:1046B00038B5074D00230446084611462B60FCF729
:1046C00047F9431C02D12B6803B1236038BD00BFFA
:1046D0004001002038B5064D0023044608462B60F3
:1046E000FCF7A4F8431C02D12B6803B1236038BD4A
:1046F0004001002038B5074D044608461146002207
:104700002A601A46FCF7EBF8431C02D12B6803B170
:10471000236038BD400100200148FFF705BB00BF02
:10472000390100200148FFF700BB00BF390100201C
:1047300038B5074D04460846114600222A601A463D
:10474000FCF7DEF8431C02D12B6803B1236038BDAF
:1047500040010020F8B500BFF8BC08BC9E46704779
:0C476000F8B500BFF8BC08BC9E467047CE
:10476C0048756D693A253032642054656D703A2570
:10477C003032640D0A000000000000000000000050
:10478C0001020304060708090000000001020304EB
:10479C0010000020000000000000000000000000DD
:1047AC0000000000000000000000000000000000FD
:1047BC0000000000000000000000000000000000ED
:1047CC0000000000000000000000000000000000DD
:1047DC0000000000000000000000000000000000CD
:1047EC0000000000000000000000000000000000BD
:1047FC0000000000232D302B2000686C4C006566F7
:10480C006745464700303132333435363738394115
:10481C00424344454600303132333435363738392B
:08482C0061626364656600002F
:084834006CBAFF7F01000000D7
:04483C00B5010008BA
:0448400091010008DA
:104844000024F4001000000001000000100000200B
:1048540000000000C0470008E0470008A047000827
:104864000000000000000000000000000000000044
:104874000000000000000000000000000000000034
:104884000000000000000000000000000000000024
:104894000000000000000000000000000000000014
:1048A4000000000000000000000000000000000004
:0400000508000C7172
:00000001FF
